:03000000020006F5
:03005F0002000399
:0300030002006296
:100062007580FF7F008F068EF005F07401800225F7
:10007200E0D5F0FBF4F5809000FAC00712008BD0B7
:10008200070FBF080040DE80DAAE82AF837C007DBE
:1000920000C3EC9EED9F50147A717B001ABAFF01E7
:0D00A2001BEA4B70F70CBC00E80D80E52256
:06003500E478FFF6D8FD9F
:100013007900E94400601B7A009000B3780175A071
:1000230000E493F2A308B8000205A0D9F4DAF2754C
:02003300A0FF2C
:10003B007800E84400600A790175A000E4F309D860
:10004B00FC7800E84400600C7900900001E4F0A318
:04005B00D8FCD9FAFA
:0D0006007581071200AFE582600302000360
:0400AF007582002234
:00000001FF
