:03000000020006F5
:03005F0002000399
:0300030002011DDA
:20006200AE82AF837C007D00C3EC9EED9F50147AC87B001ABAFF011BEA4B70F70CBC00E8EE
:200082000D80E522D2B4900001120062C2B4900001020062AF82C2B5C2B68F80120086907D
:2000A2000002020062AF82D2B5C2B68F80120086900002020062900028120062758238129E
:2000C200009675820C120096758206120096758201120096900002020062AF82E50870050F
:2000E2007D80FE80047DC07E00EF2DF582020096AD82AE83AFF08D828E838FF0120146FCA6
:2001020060188C820DBD00010EC007C006C0051200A7D005D006D00780DC221200B875082C
:20012200007582001200DC90016675F0801200F27508017582001200DC90017575F0801298
:0401420000F280FE49
:1F016600383035312046554E43494F4E4121004C4344204F4B206E6F205030203A29006B
:06003500E478FFF6D8FD9F
:200013007900E94400601B7A00900185780175A000E493F2A308B8000205A0D9F4DAF2750D
:02003300A0FF2C
:20003B007800E84400600A790175A000E4F309D8FC7800E84400600C7900900001E4F0A3C3
:04005B00D8FCD9FAFA
:0D000600758108120162E5826003020003AB
:1C01460020F71430F6148883A88220F507E6A88375830022E280F7E49322E022C8
:040162007582002280
:00000001FF
