:03000000020006F5
:0F005F00750805750902750A00750B020200038A
:030003000200E711
:20006E00AE82AF837C007D00C3EC9EED9F50147A787B001ABAFF011BEA4B70F70CBC00E832
:20008E000D80E522D2A4D2A5D2A6D2A722120092E5089000F093F580C2A490000112006E2E
:2000AE00120092E5099000F093F580C2A590000112006E120092E50A9000F093F580C2A61D
:1E00CE0090000112006E120092E50B9000F093F580C2A790000102006E12009B80FB55
:2000F000C0F9A4B0999282F880908883C6A1868EC289F9F1C3A9C08C989287C1E38EFF00D9
:06011000000000000000E9
:06003500E478FFF6D8FD9F
:200013007900E94400601B7A00900116780175A000E493F2A308B8000205A0D9F4DAF2757C
:02003300A0FF2C
:20003B007800E84400600A790175A000E4F309D8FC7800E84400600C7900900001E4F0A3C3
:04005B00D8FCD9FAFA
:0D00060075810B1200ECE58260030200031F
:0400EC0075820022F7
:00000001FF
